:0608840012088A02086C54
:05088A00C2B0D2A02263
:0C086C0020A00512083980F8C2B080F40A
:100839007F017E00120800D2B07F017E00120800FD
:03084900C2B02218
:0D085E007F787E00EF1F70011EEF4E70F7D7
:01086B00226A
:04082000AD07AC066E
:10082400E4FBFAC3EB9DEA9C500A12085E0BBB0082
:04083400010A80EF46
:01083800229D
:100800007C037DE812084CAD07AC06E4FBFAC3EBB1
:0F0810009DEA9C500A12085E0BBB00010A80EFA4
:01081F0022B6
:030000000208787B
:0C087800787FE4F6D8FD75810702088443
:10084C00EF8DF0A4A8F0CF8CF0A428CE8DF0A42EC0
:02085C00FE227A
:00000001FF
